:020000040800F2
:1000000000500020190200080D0100080D01000831
:100010000D0100080D0100080D010008000000009E
:100020000000000000000000000000000D010008BA
:100030000D010008000000000D0100080D0100087E
:100040000D0100080D0100080D0100080D01000858
:100050000D0100080D0100080D0100080D01000848
:100060000D0100080D0100080D0100080D01000838
:100070000D0100080D0100080D0100080D01000828
:100080000D0100080D0100080D0100080D01000818
:100090000D0100080D0100080D0100080D01000808
:1000A0000D0100080D0100080D0100080D010008F8
:1000B0000D0100080D010008000000000D010008FE
:1000C0000D01000800000000000000000D01000804
:1000D000000000000D0100080D01000800000000F4
:1000E0000D0100080D0100080D01000800000000CE
:1000F0000000000000000000000000000000000000
:0C01000000000000000000000D010008DD
:10010C00704700BF70B44FF000644FF41F05374BBD
:10011C00374A1868374940F0010018605868364E65
:10012C0002405A601A68354822F0847222F48032F8
:10013C001A601A6822F480221A605A6822F4FE02AD
:10014C005A609D600E6084601A682D4C42F48032B7
:10015C001A60227892B940F2FF401A68C2F340420A
:10016C0052B91A68013802F40035C2F34042F7D193
:10017C0022701DB970BC70470123237021481B4BA2
:10018C0004681A4644F010040460046824F0030464
:10019C000460046844F002040460586858605868AD
:1001AC005860586840F480605860586820F47C109F
:1001BC005860586840F4E8105860186840F0807037
:1001CC00186013689B01FCD55368084823F003039F
:1001DC005360536843F002035360436803F00C030D
:1001EC00082BFAD170BC084B0B6070470010024012
:1001FC000C00FFF80000002000127A0000ED00E077
:10020C00080000200020024000A24A0408B5134A4E
:10021C00134B1449D21A184600F090F81248134A9E
:10022C000021121A00F04CF9FFF76CFF104B1B78F1
:10023C0013B100F005F9FEE74FF400500D490E4BD9
:10024C008A6942F010028A615A6822F470025A607C
:10025C005A6842F440125A605861FEE708000020C8
:10026C00000000206C050008080000200900002098
:10027C000800002000100240001001402A4910B470
:10028C000B682A4C43F480330B60237893B940F20B
:10029C00FF420B68C3F3404353B90B68013A03F4B4
:1002AC000030C3F34043F7D1237018B910BC70472A
:1002BC00012323701E491C4B08681A4640F010009D
:1002CC000860086820F003000860086840F002002D
:1002DC0008605968596059685960596841F48061DF
:1002EC005960596821F47C115960596841F4E8113E
:1002FC005960196841F08071196013689B01FCD535
:10030C005368094923F003035360536843F0020315
:10031C0053604B6803F00C03082BFAD1054B064ACB
:10032C0010BC1A60704700BF00100240080000208B
:10033C00002002400000002000A24A04844641EA4A
:10034C00000313F0030349D1403A23D30B68036035
:10035C004B6843608B688360CB68C3600B69036137
:10036C004B6943618B698361CB69C3610B6A03621F
:10037C004B6A43628B6A8362CB6AC3620B6B036307
:10038C004B6B43638B6B8363CB6BC36340304031EC
:10039C00403ADBD230320BD30B6803604B684360BE
:1003AC008B688360CB68C36010301031103AF3D285
:1003BC000C3205D351F8043B40F8043B043AF9D213
:1003CC00043208D0D2071CBF11F8013B00F8013BE6
:1003DC0001D30B8803806046704700BF082A13D3F3
:1003EC008B07B1D010F00303AED0C3F10403D21AC3
:1003FC00DB071CBF11F8013B00F8013BA4D331F81B
:10040C00023B20F8023B9FE7043AD9D3013A11F89A
:10041C00013B00F8013BF9D20B7803704B78437029
:10042C008B78837060467047F8B500BFF8BC08BC89
:10043C009E467047F8B500BFF8BC08BC9E46704796
:10044C001C4B41F253701E464FF400551A491B4C7D
:10045C008A6982B042F010028A615A6822F47002F2
:10046C005A605A6842F4C0025A602368591E6BB134
:10047C000190019B5A1E01922BB100BF019B5A1E89
:10048C000192002BF9D111F1FF31F1D223683561C2
:10049C00591E6BB10090009B5A1E00922BB100BFED
:1004AC00009B5A1E0092002BF9D111F1FF31F1D2B1
:1004BC007561DAE7001001400010024004000020D2
:1004CC00F0B4860746D0541E002A3CD0CAB203466C
:1004DC0002E014F1FF3436D303F8012B9D07F8D159
:1004EC00032C29D9CDB245EA05250F2C45EA054543
:1004FC0033D9A4F11006360903F1200707EB0617D0
:10050C0003F1100242E9045542E902551032BA4295
:10051C00F8D1721C14F00C0F03EB021204F00F064E
:10052C0013D0331F23F003030433134442F8045B4A
:10053C009342FBD106F003042CB1C9B21C4403F85E
:10054C00011B9C42FBD1F0BC704734461346002C77
:10055C00F3D1F8E714460346C2E71A462646E0E70D
:08056C0000127A00F401000006
:0400000508000219D4
:00000001FF
